:100000000C949E060C94C6060C94C6060C94A2276B
:100010000C94A2270C94A2270C94C6060C94C60636
:100020000C94C6060C94C6060C94C6060C94C60620
:100030000C94C6060C94C6060C94C6060C94C60610
:100040000C9458270C94C6060C9426270C94002771
:100050000C94C6060C94C6060C94C6060C94C606F0
:100060000C94C6060C94C606206572726F720075F9
:100070006E6B6E6F776E0067656E6572616C007097
:1000800061636B657420636865636B73756D007085
:1000900061636B657420686561646572007061639B
:1000A0006B65742073697A650072782074696D6578
:1000B0006F75740061647665727469736500666952
:1000C0006C65206D69736D617463680066696C6549
:1000D00020696E64657800636865636B73756D0095
:1000E00073657269616C20737461636B00736C6516
:1000F000657000627573790073687566666C65205B
:1001000051756575650077726974652073657474DF
:10011000696E677320746F20666C61736800726526
:100120007365742073657474696E677320696E20DB
:10013000454550524F4D006D69677261746520539B
:10014000657474696E6773005361766564204D6FE2
:10015000646966696572204D6F64653A2000416488
:100160006D696E204D656E752050696E3A200041B4
:10017000646D696E204D656E75206C6F636B656490
:100180003A2000496E76657274656420566F6C2063
:10019000427574746F6E733A2000536C65657020FD
:1001A00054696D65723A20004C6F636B65643A2048
:1001B0000045513A2000496E697420566F6C3A2010
:1001C000004D696E20566F6C653A20004D617820B5
:1001D000566F6C3A200056657273696F6E3A200054
:1001E0006C6F61642073657474696E6773206672E6
:1001F0006F6D20666C617368006D696C69733A207D
:1002000000736574207374616E6462792074696D23
:1002100065720064697361626C65207374616E64F9
:1002200062792074696D657200536C6565705469FC
:100230006D6572203E20736C6565700020732E0022
:10024000467265657A6544616E63652073657420E6
:100250006E6578742073746F70206174200046722C
:1002600065657A6544616E6365203E2066726565EA
:100270007A650050757A7A6C6547616D65203E201D
:10028000737563636573730050757A7A6C65476143
:100290006D65203E204661696C7572650050757A07
:1002A0007A6C6547616D65203E2064656C65746598
:1002B00020706172740050757A7A6C6547616D6563
:1002C000203E2076616C6964207061727400507504
:1002D0007A7A6C6547616D65203E206E6F2076618D
:1002E0006C69642070617274005175697A47616D40
:1002F00065203E2073756363657373005175697A79
:1003000047616D65203E206661696C7572650051BC
:1003100075697A47616D65203E2064656C6574651A
:100320002070617274005175697A47616D65203E75
:100330002071756575652072657065617400517511
:10034000697A47616D65203E207175657565206E1F
:10035000657874005175697A47616D65203E20703B
:100360006175736520616E642072657065617420CB
:10037000005175697A47616D65203E2076616C6930
:10038000642070617274005175697A47616D6520EF
:100390003E206E6F2076616C69642070617274001B
:1003A000427574746F6E536D617368203E20726580
:1003B0007065617420717565756500427574746F40
:1003C0006E536D617368203E207175657565206E92
:1003D000657874004B696E64657267617264656EFE
:1003E0004D6F6465203E206E657874004B696E64C5
:1003F000657267617264656E4D6F6465203E205260
:100400004649442071756575656400526570656183
:100410007453696E676C65203E2072657065617407
:1004200020747261636B00466565646261636B2072
:100430003E20566F6C446F776E004665656462615E
:10044000636B203E566F6C55700046656564626153
:10045000636B203E2052464944004D6F64653A204C
:10046000004E6F206E65787420547261636B004E8D
:1004700065787420747261636B206C6F636B656464
:1004800000566F6C756D65207570206C6F636B65C1
:100490006400766F6C756D652055703A2000566F5C
:1004A0006C756D6520646F776E206C6F636B65642F
:1004B00000766F6C756D6520446F776E3A20004E44
:1004C00065787420627574746F6E206C6F636B65F1
:1004D000640050726576696F757320627574746F0D
:1004E0006E206C6F636B6564004D6F64653A20002D
:1004F0004E6F2070726576696F75732054726163F8
:100500006B00547261636B206E6F74207374617240
:1005100074696E6700706C617920747261636B3A04
:10052000200050757A7A6C652050617274005369AE
:100530006E676C65006E6F7420636F7272656374B2
:10054000207461672C2073746172742066726F6D01
:1005500020626567696E6E00417564696F20426F45
:100560006F6B2073656374696F6E00417564696FAA
:1005700020426F6F6B0050617274790020746F209D
:1005800000416C62756D2073656374696F6E004124
:100590006C62756D0020746F2000417564696F2076
:1005A0004472616D612073656374696F6E0041759B
:1005B00064696F204472616D610020747261636BC5
:1005C0007320696E20666F6C6465722000706C61C8
:1005D00079466F6C646572006E6F7420636F6E662F
:1005E0006967757265640053686F72746375743AF5
:1005F000200072657365742054616700416267650D
:1006000062726F6368656E21007772697465205449
:1006100061670061626F7274210020706C616365B4
:1006200020546167007772697465205461670061C6
:10063000626F72740061646D696E4D656E75005312
:100640006574757020666F6C646572206F6B005006
:10065000757A7A6C655061727400417564696F4295
:100660006F6F6B0041646D696E4D656E750053650B
:100670006374696F6E0053696E676C65004D6F64DB
:10068000653A2000466F6C6465723A2000536574C9
:10069000757020666F6C6465720073657475704365
:1006A000617264004D49464152455F5772697465F5
:1006B000206661696C656420002E2E2E00577269D9
:1006C00074696E67206461746120005043445F4127
:1006D000757468656E746963617465206661696CC0
:1006E0006564200041757468656E7469636174693E
:1006F0006E6720554C2E2E2E0041757468656E7401
:1007000069636174696E6720616761696E207573E2
:10071000696E67206B657920412E2E2E00777269F5
:1007200074652043617264006D6F64696669657207
:100730002072656D6F76656400536C6565705469F1
:100740006D6572206D696E757465733A200046722E
:1007500065657A6544616E6365004C6F636B6564C3
:10076000204D6F6966696572004B696E64657267DA
:10077000617264656E4D6F64650052657065617489
:1007800053696E676C650050757A7A6C6547616D68
:1007900065005175697A47616D65203E2071756508
:1007A000756520736574005175697A47616D6500E0
:1007B000427574746F6E536D617368007365742055
:1007C0006D6F6469666965723A2000206F66206605
:1007D0006F6C646572204E6F2E200072656164201C
:1007E0006D656D6F7279204E6F2E200020696E202E
:1007F0006D656D6F7279204E6F2E2000206F662020
:10080000666F6C646572204E6F2E2000777269747B
:100810006520747261636B204E6F2E2000556E6BE5
:100820006E6F776E206572726F720041204D49467F
:10083000415245205049434320726573706F6E6486
:1008400065642077697468204E414B2E00546865BA
:10085000204352435F4120646F6573206E6F7420A4
:100860006D617463682E00496E76616C6964206105
:100870007267756D656E742E00496E7465726E6177
:100880006C206572726F7220696E207468652063D7
:100890006F64652E2053686F756C64206E6F7420D2
:1008A00068617070656E2E004120627566666572C3
:1008B000206973206E6F742062696720656E6F75A2
:1008C00067682E0054696D656F757420696E2063CA
:1008D0006F6D6D756E69636174696F6E2E00436F25
:1008E0006C6C697373696F6E20646574656374659D
:1008F000642E004572726F7220696E20636F6D6D99
:10090000756E69636174696F6E2E005375636365FC
:1009100073732E00000000080002010000030407AA
:10092000000000000000000000000000240027007C
:100930002A005741524E494E473A20436F6D6D751C
:100940006E69636174696F6E206661696C7572654A
:100950002C20697320746865204D4652433532322D
:100960002070726F7065726C7920636F6E6E656354
:100970007465643F00203D2028756E6B6E6F776E46
:100980002900203D20636F756E7465726665697419
:10099000206368697000203D2076322E3000203DB3
:1009A0002076312E3000203D2076302E3000203D44
:1009B0002028636C6F6E6529004669726D776172DD
:1009C000652056657273696F6E3A20307800446511
:1009D0006C65746520454550524F4D00466F726BF3
:1009E000206279204D6172636F20536368756C7A61
:1009F00000496E666F726D6174696F6E20616E641E
:100A000020636F6E747269627574696F6E206174B1
:100A10002068747470733A2F2F746F6E75696E6FDF
:100A20002E64652E0A0063726561746564206279C4
:100A30002054686F727374656E20566FC39F206177
:100A40006E64206C6963656E73656420756E6465A1
:100A50007220474E552F47504C2E00546F6E55490B
:100A60004E4F2056657273696F6E20322E310053DF
:100A700068757420646F776E206C6F636B656400BB
:100A80007374616E64627920616374697665005580
:100A90006E6B6E6F776E20747970650053414B20DA
:100AA000696E646963617465732055494420697394
:100AB000206E6F7420636F6D706C6574652E004DD1
:100AC000494641524520544E5033585858004D49DC
:100AD000464152452044455346697265004D49469A
:100AE00041524520506C7573004D49464152452096
:100AF000556C7472616C69676874206F7220556CF4
:100B00007472616C696768742043004D49464152B4
:100B10004520344B42004D494641524520314B421D
:100B2000004D4946415245204D696E692C203332B3
:100B300030206279746573005049434320636F6DC0
:100B4000706C69616E7420776974682049534F2F07
:100B500049454320313830393220284E4643290058
:100B60005049434320636F6D706C69616E742077E8
:100B70006974682049534F2F494543203134343438
:100B8000332D340052464944206C6F636B6564001A
:100B900044617461206F6E2043617264203A2000CA
:100BA0004D49464152455F526561645F342066613C
:100BB000696C656420004D49464152455F5265614C
:100BC000645F33206661696C656420004D4946416D
:100BD00052455F526561645F32206661696C65648D
:100BE00020004D49464152455F526561645F3120A6
:100BF0006661696C656420004D49464152455F520B
:100C0000656164206661696C65643A20002E2E2E51
:100C10000052656164696E67206461746120626C72
:100C20006F636B005043445F41757468656E74690F
:100C300063617465206661696C6564200041757448
:100C400068656E7469636174696E67204D494641D9
:100C5000524520554C2E2E2E0041757468656E74D9
:100C600069636174696E6720436C617373696320A3
:100C70007573696E67206B657920412E2E2E0050AA
:100C800049434320747970652000436172642055A4
:100C90004944200063616E74207265616420636161
:100CA0007264005265616443617264536572696184
:100CB0006C2066696E69736865640073616D652098
:100CC00063617264006361726420676F6E65006EB9
:100CD00065772063617264005061757365206C6F85
:100CE000636B6564003D2000204F7074696F6E7304
:100CF00000766F6963654D656E7520000000000029
:100D000023002600290000000000250028002B00F9
:100D100004040404040404040202020202020303A1
:100D200003030303010204081020408001020408A9
:100D300010200102040810201A28962F11241FBE2B
:100D4000CFEFD8E0DEBFCDBF12E0A0E0B1E0EAE82F
:100D5000F4E602C005900D92A43EB107D9F725E054
:100D6000A4EEB2E001C01D92A03AB207E1F716E08E
:100D7000CDE9D6E004C02197FE010E94E330CC39D2
:100D8000D107C9F70E9414290C9438320C94000042
:100D9000FC018781882399F0428553856485758598
:100DA00086859785A089B189481B590B6A0B7B0BF7
:100DB00081E0483E53406105710508F480E00895E4
:100DC0008CBD9DBD0895AF92BF92CF92DF92EF92FE
:100DD000FF920F931F93CF93DF936C017B018B01E5
:100DE000040F151FEB015E01AE18BF08C017D10735
:100DF00059F06991D601ED91FC910190F081E02DBF
:100E0000C6010995892B79F7C501DF91CF911F9113
:100E10000F91FF90EF90DF90CF90BF90AF9008952B
:100E2000FC01538D448D252F30E0842F90E0821BF0
:100E3000930B541710F0CF96089501970895FC0175
:100E4000918D828D981761F0A28DAE0FBF2FB11DCD
:100E50005D968C91928D9F5F9F73928F90E0089525
:100E60008FEF9FEF0895FC01918D828D981731F0DF
:100E7000828DE80FF11D858D90E008958FEF9FEF33
:100E80000895FC01918D228D892F90E0805C9F4F09
:100E9000821B91098F739927089581E994E00E943C
:100EA000410721E0892B09F420E0822F089580E09A
:100EB00090E0892B29F00E944D0781110C940000CD
:100EC0000895FC01A48DA80FB92FB11DA35ABF4FDF
:100ED0002C91848D90E001968F739927848FA68939
:100EE000B7892C93A089B1898C91837080648C938D
:100EF000938D848D981306C00288F389E02D80813C
:100F00008F7D80830895EF92FF920F931F93CF936D
:100F1000DF93EC0181E0888F9B8D8C8D98131AC034
:100F2000E889F989808185FF15C09FB7F894EE891B
:100F3000FF896083E889F989808183708064808378
:100F40009FBF81E090E0DF91CF911F910F91FF90C3
:100F5000EF900895F62E0B8D10E00F5F1F4F0F736B
:100F60001127E02E8C8D8E110CC00FB607FCFACF26
:100F7000E889F989808185FFF5CFCE010E9461075C
:100F8000F1CFEB8DEC0FFD2FF11DE35AFF4FF082F7
:100F90009FB7F8940B8FEA89FB8980818062CFCF5D
:100FA0000F931F93CF93DF938C01D0E0C0E0F80143
:100FB000EC0FFD1F6491662341F081E994E00E94EB
:100FC0008307892B11F02196F2CFCE01DF91CF91CB
:100FD0001F910F910895CF93DF93EC01888D8823A3
:100FE000B9F0AA89BB89E889F9898C9185FD03C08C
:100FF000808186FD0DC00FB607FCF7CF8C9185FF71
:10100000F2CF808185FFEDCFCE010E946107E9CF4D
:10101000DF91CF910895833081F028F4813099F0E9
:101020008230A9F008958730A9F08830C9F0843063
:10103000B1F4809180008F7D03C0809180008F7714
:1010400080938000089584B58F7784BD089584B51A
:101050008F7DFBCF8091B0008F778093B000089593
:101060008091B0008F7DF9CFCF93DF93282F30E0B0
:10107000F901EC5EF64F8491F901EC5DF24FD491E9
:10108000F901E05FF24FC491CC23A1F081110E94DD
:101090000B08EC2FF0E0EE0FFF1FE450F34FA5918B
:1010A000B491EC91ED2381E090E009F480E0DF91D0
:1010B000CF91089580E090E0FACF1F93CF93DF9314
:1010C000282F30E0F901EC5EF64F8491F901EC5DD8
:1010D000F24FD491F901E05FF24FC491CC23A9F013
:1010E000162F81110E940B08EC2FF0E0EE0FFF1F6E
:1010F000EA5FF24FA591B4918FB7F894EC9111117A
:1011000008C0D095DE23DC938FBFDF91CF911F9174
:101110000895DE2BF8CFCF93DF9390E0FC01EC5DD8
:10112000F24F2491805F924FFC0184918823C9F093
:1011300090E0880F991FFC01E85DF64FA591B491EE
:10114000FC01EA5FF24FC591D49161110DC09FB7C8
:10115000F8948C91209582238C938881282328836E
:101160009FBFDF91CF910895623051F49FB7F894FB
:101170003C91822F809583238C93E8812E2BEFCF97
:101180008FB7F894EC912E2B2C938FBFEACF3FB7FB
:10119000F8948091300490913104A0913204B09180
:1011A000330426B5A89B05C02F3F19F00196A11D59
:1011B000B11D3FBFBA2FA92F982F8827BC01CD01A1
:1011C000620F711D811D911D42E0660F771F881F00
:1011D000991F4A95D1F708958F929F92AF92BF922F
:1011E000CF92DF92EF92FF924B015C010E94C70801
:1011F0006B017C010E94C7086C197D098E099F094B
:10120000683E734081059105A8F321E0821A910898
:10121000A108B10888EEC80E83E0D81EE11CF11CBD
:1012200081149104A104B10429F7FF90EF90DF909D
:10123000CF90BF90AF909F908F9008952FB7F89464
:1012400060912C0470912D0480912E0490912F04B4
:101250002FBF08950F931F930E941E096093990456
:1012600070939A0480939B0490939C0481E994E08A
:101270000E94330797FF1DC00E941E090091990428
:1012800010919A0420919B0430919C04601B710B77
:10129000820B930B00919504109196042091970472
:1012A000309198046017710782079307F8F28FEF67
:1012B0009FEF1F910F9108958F929F92AF92BF92CF
:1012C000CF92DF92EF92FF920F931F93CF93DF9312
:1012D000EC016A017B0110E000E00E941E096887B2
:1012E00079878A879B87E881F9810284F385E02DDD
:1012F000CE01099597FF21C00E941E098884998418
:10130000AA84BB84681979098A099B098C809D800D
:10131000AE80BF80681579058A059B0520F3C8015A
:10132000DF91CF911F910F91FF90EF90DF90CF90C1
:10133000BF90AF909F908F900895F70181937F01A8
:101340000F5F1F4FC016D10641F6E9CF209136043A
:10135000309137042817390771F490913404809143
:101360003504981741F0E0913404F0E0E551FC4F6A
:10137000808190E008958FEF9FEF08950895EF9298
:10138000FF920F931F93CF93DF93DC015C96ED9058
:10139000FC905D97E114F10479F481E090E01396FC
:1013A0009C938E93129790E080E0DF91CF911F91F4
:1013B0000F91FF90EF9008955196ED91FC91529707
:1013C00050968C915097982F90950FB75E962C91D0
:1013D0005E97122F127021FD6095F89420811123E1
:1013E00019F1282B2083E7012197F1F728E0462FF8
:1013F00050E0308160FF1AC0382B3083E70121971D
:10140000F1F7BA0175956795215089F7112381F09D
:101410008081892380830FBF5C968D919C91019779
:10142000F1F781E090E0C1CF2923DCCF3923E5CF6C
:101430009081892BEFCF2091360430913704281703
:10144000390771F4809135042091340490E0805C78
:101450009F4F821B910960E470E00E94CF30089595
:1014600090E080E0089520913604309137042817E9
:101470003907B9F49091340480913504981789F0B4
:10148000E0913404F0E0E551FC4F80812091340478
:1014900030E02F5F3F4F2F7333272093340490E0C9
:1014A00008958FEF9FEF089590E080E00895BC01CC
:1014B0006E5F7F4FDC01ED91FC910190F081E02D9A
:1014C00040E0099591E0811190E0892F08958430E2
:1014D000F1F050F4813091F030F1823091F08330AE
:1014E00099F08DE198E008958630B9F098F0873052
:1014F000B9F08F3FB1F78BE298E0089583EF98E061
:1015000008958EED98E0089584EC98E0089588EAB7
:1015100098E0089589E798E0089587E698E00895AF
:101520008DE498E008958BE099E0089508958EBDCC
:1015300000000DB407FEFDCF8EB50895DF92EF9247
:10154000FF920F931F93CF93DF937C01062FD42E2E
:10155000152F83E590E00E94E00660E0F7018685A4
:101560000E945D0882E10E94970ACD2DD12F0C0FB9
:101570001D2F111DC017D10721F089910E94970AD4
:10158000F9CF61E0F7018685DF91CF911F910F912F
:10159000FF90EF90DF900C945D081F93CF93DF9343
:1015A000EC01162F83E590E00E94E00660E08E8556
:1015B0000E945D08812F80680E94970A80E00E9447
:1015C000970A182F61E08E850E945D08812FDF91B8
:1015D000CF911F9108950F931F93CF93DF93EC0149
:1015E000062F142F83E590E00E94E00660E08E85D0
:1015F0000E945D08802F0E94970A812F0E94970AFF
:1016000061E08E85DF91CF911F910F910C945D0861
:10161000CF92DF92EF92FF920F931F93CF93DF93BE
:10162000EC016B01142F790140E062E00E94EB0AAB
:1016300044E06AE0CE010E94EB0A40E864E1CE019A
:101640000E94EB0AA601612FCE010E949E0A43E090
:1016500062E0CE010E94EB0A08E813E16AE0CE01E5
:101660000E94CD0A82FF1BC040E062E0CE010E94D2
:10167000EB0A64E4CE010E94CD0AF701808362E4A4
:10168000CE010E94CD0AF701818380E0DF91CF91E6
:101690001F910F91FF90EF90DF90CF900895015030
:1016A0001109E1F683E0F2CF3F924F925F926F9281
:1016B0007F928F929F92AF92BF92CF92DF92EF92E2
:1016C000FF920F931F93CF93DF9300D0CDB7DEB778
:1016D0003C01162F942E290180E0A114B10411F0D1
:1016E000F5018081382C329490EF3922380E40E099
:1016F00062E0C3010E94EB0A4FE768E0C3010E9469
:10170000EB0A40E864E1C3010E94EB0AA201602FEA
:10171000C3010E949E0A432D6AE1C3010E94EB0AA5
:10172000412F62E0C3010E94EB0A1C3051F46AE1D0
:10173000C3010E94CD0A482F40686AE1C3010E949C
:10174000EB0A00ED17E068E0C3010E94CD0A982F74
:10175000992109F0B3C080FD03C00150110999F728
:1017600083E092C0E114F10409F46BC0C114D10408
:1017700009F467C064E1C3010E94CD0A982EF60106
:101780008081891508F494C090829920C9F183E57D
:1017900090E00E94E00660E0F30186850E945D080B
:1017A0009A9482E90E94970A882099F00FEF10E03E
:1017B00001C0000F8A94EAF782E90E94970A902FED
:1017C0009095F701208192238023982B9083882481
:1017D00083948701080D111D891440F482E90E9449
:1017E000970AF80181938F018394F6CF80E00E94DD
:1017F000970AF801808361E0F30186850E945D0805
:1018000068E1C3010E94CD0A8770A114B10411F0F0
:10181000F501808353FC4EC0E114F10409F44CC07F
:10182000C114D10409F448C09E89992309F444C025
:10183000F6014081413039F4843009F049C08FEF1E
:1018400023C080E0E7CF423008F442C0811140C09D
:1018500042509E012F5F3F4FB701C3010E94080B0A
:10186000811112C0F6019081E90EF11CF701329747
:101870002081998129132CC0F1E0EF1AF108F701BA
:1018800020819A81291324C00F900F90DF91CF916E
:101890001F910F91FF90EF90DF90CF90BF90AF908E
:1018A0009F908F907F906F905F904F903F900895A2
:1018B00084E0EACF82E0E8CF80E0E6CF6CE0C301CD
:1018C0000E94CD0A582E837109F44CCF81E0DCCF01
:1018D00087E0DACF6F927F928F92AF92BF92CF92D2
:1018E000DF92EF92FF920F93CF93DF93CDB7DEB7E6
:1018F00064970FB6F894DEBF0FBECDBF3C018BE1FD
:10190000898380918B048A8380918C048B8380915E
:101910008D048C8380918E048D839E012A5F3F4FBE
:1019200045E0BE016F5F7F4F8CE895E00E94080B99
:1019300081111BC01C8A85E08B8B1F92812CCE01EC
:1019400044965C01FE0173966F0143977C0107E0AA
:101950009C0140E36CE08CE895E00E94540B998177
:10196000F30190839A8191830F9064960FB6F89457
:10197000DEBF0FBECDBFDF91CF910F91FF90EF90F3
:10198000DF90CF90BF90AF908F907F906F90089531
:101990008F92AF92BF92CF92DF92EF92FF920F930E
:1019A000CF93DF93CDB7DEB72C970FB6F894DEBF99
:1019B0000FBECDBF90E699838A83EBE8F4E0DE01A9
:1019C000139681918D9384E0E139F807D1F7E09186
:1019D0008E05E150FF0BE457FA4FDE011996CE0158
:1019E0000D9621912D93A817B907D9F71F92812C35
:1019F000B12CA12CD12CC12CF12CE12C0CE09E019E
:101A00002F5F3F4F40E16EE08CE895E00E94540B61
:101A10000F902C960FB6F894DEBF0FBECDBFDF91AE
:101A2000CF910F91FF90EF90DF90CF90BF90AF904C
:101A30008F9008956F927F928F92AF92BF92CF92C4
:101A4000DF92EF92FF920F931F93CF93DF9300D01B
:101A500000D0CDB7DEB73C0180E589831A829E01B4
:101A60002D5F3F4F42E0BE016F5F7F4FC3010E9479
:101A7000080B182F811118C01F92812CB12CA12C9A
:101A8000D12CC12CF12CE12C04E09E012F5F3F4FA3
:101A900040E36CE0C3010E94540B0F90833021F0AF
:101AA000182F811101C011E0812F0F900F900F901E
:101AB0000F90DF91CF911F910F91FF90EF90DF90EA
:101AC000CF90BF90AF908F907F906F9008958F923E
:101AD000AF92BF92CF92DF92EF92FF920F93CF938C
:101AE000DF93FA019081923148F16A01EB0190E3B2
:101AF000988389839B012E5F3F4F42E08CE895E0FD
:101B00000E94080B81110FC081E08F93812CB12CB2
:101B1000A12C7E0104E09E0140E36CE08CE895E09E
:101B20000E94540B0F90DF91CF910F91FF90EF9097
:101B3000DF90CF90BF90AF908F90089584E0F3CF67
:101B40000F931F93CF93DF938C01D62FC42F0E9446
:101B5000CD0AC0954C2F48236D2FC801DF91CF913E
:101B60001F910F910C94EB0A48E060E18CE895E03E
:101B70000C94A00D6F927F928F92AF92BF92CF92F2
:101B8000DF92EF92FF920F93CF93DF9300D000D0BC
:101B90001F92CDB7DEB73C0182E08D8340E064E266
:101BA000C3010E94EB0A40E066E2C3010E94EB0A17
:101BB00046E268E4C3010E94EB0A86E28B838D81D2
:101BC0008230C8F140E86CE1C3010E94A00D87E0BB
:101BD0008C831F92812CCE0104965C0101966C01CE
:101BE00004977C0101E09E012D5F3F4F40E36CE0D4
:101BF000C3010E94540B982F0F90811119C08D8141
:101C00008230C9F48C81811116C081E00F900F9051
:101C10000F900F900F90DF91CF910F91FF90EF9069
:101C2000DF90CF90BF90AF908F907F906F9008958E
:101C300081E0923059F380E0E9CF2F923F924F92AA
:101C40005F926F927F928F929F92AF92BF92CF924C
:101C5000DF92EF92FF920F931F93CF93DF93CDB755
:101C6000DEB72E970FB6F894DEBF0FBECDBF06E0ED
:101C7000413508F046C14E873B012C0140E86CE13C
:101C80000E94A00D83E989832E85222329F081E01B
:101C9000F3019081953008F480E0992493941C8698
:101CA0009C85990F990F990F1E85191B17FD10E040
:101CB00032E0882319F098E89B8333E021E0912FEC
:101CC000977009F420E0912F959595959595290F9A
:101CD000D1F094E0811193E0291708F4922F2C851C
:101CE000E22FF0E03196E60DF71D232F4191A1E0A0
:101CF000B0E0AC0FBD1FA20FB11D4C932F5F422F60
:101D0000431B491798F38111185F10320CF484C0FB
:101D100080E78A838B819C8189279D8189279E8189
:101D200089278F839E01285F3F4F47E0BE016F5F89
:101D30007F4FC2010E94080B082F8111E2C01A8652
:101D400093E09B871D87FE0137961F0109E08A8477
:101D5000482D4295407F480D6AE1C2010E94EB0A7E
:101D60001F92CE010A965C01FE013B966F01710144
:101D70009E012F5F3F4F40E36CE0C2010E94540B75
:101D8000082F0F90823009F065C06CE1C2010E94FB
:101D9000CD0A85FDB6C08F7109F480E2282F30E0AE
:101DA000412F110F550B421753070CF09EC0182FEF
:101DB000E22FE595E595E595EF5F922F977081E02D
:101DC00009F480E0E80F81E090E08C0F9D1F8E0FFA
:101DD000911DFC01215031092770332781E090E0EB
:101DE00002C0880F991F2A95E2F79C018081822BFF
:101DF00080838BCF85E98983FE85FF2331F081E0E5
:101E0000F3019081983008F04BCF80E049CF87E90B
:101E10008983F6E0FC87F9CF912F97709A87812FFD
:101E20008595859585958E5F282F2295207F290F92
:101E30002A8301E0911101C000E0080F22242394BD
:101E4000312C2C0E3D1E280E311CF9E0F81BFB87AF
:101E50001D877DCF811155C010E29D8590320CF415
:101E600057CF8B81883809F042C083E093E02C85FE
:101E7000E22FF0E03196E60DF71D980FA1E0B0E0FB
:101E8000AC0FBD1FA80FB11D2C9121938F5F89133B
:101E9000F5CF8B858C87833009F04DC08A85811101
:101EA0004AC09E012D5F3F4F41E0B101C2010E9437
:101EB000080B082F811125C09B81F10181819813A6
:101EC0003CC09C818281981338C0808182FF12C0FF
:101ED0009394F2E09F1609F48DCF23E0921609F453
:101EE00096CF81E0981609F4CDCE05E00AC082E0D5
:101EF00094E0BDCFF3018387892D880F980E9394CA
:101F00009082802F2E960FB6F894DEBF0FBECDBF05
:101F1000DF91CF911F910F91FF90EF90DF90CF90C5
:101F2000BF90AF909F908F907F906F905F904F90F9
:101F30003F902F90089501E0E4CF07E0E2CFFC014D
:101F40002781211102C08185089580E00895CF92F4
:101F5000DF92EF92FF920F931F93CF93DF93EC01E9
:101F60000E941E096B017C0188810E9434089C013B
:101F70008E8191E0811104C0232B21F490E002C0F6
:101F8000232BE1F74E855F85688979899701860162
:101F9000041B150B260B370B49815A816B817C8101
:101FA000041715072607370778F41986CA86DB86D3
:101FB000EC86FD868F81DF91CF911F910F91FF906D
:101FC000EF90DF90CF9008958F8188879F83292F8E
:101FD00028272987981751F3CE86DF86E88AF98A61
:101FE000E5CF8AE795E00E94A70F88E695E00E947A
:101FF000A70F86E595E00C94A70FEF92FF920F9341
:102000001F93CF93DF938C01C0E0FF24F39482E011
:10201000E82ED3E0C43050F50E94F10F8AE795E036
:102020000E94C806811122C08AE795E00E949F0F96
:10203000882329F0F801EC0FF11DF082CF5F88E6CC
:1020400095E00E949F0F882329F0F801EC0FF11D05
:10205000E082CF5F86E595E00E949F0F8823D1F252
:10206000F801EC0FF11DD083CF5FD4CF81E0DF9179
:10207000CF911F910F91FF90EF90089584E00E94FF
:10208000340821E0892B09F020E0822F089587E0B1
:10209000089586E0089585E0089581E0089584E03C
:1020A000089583E0089581E008958AE008950895F1
:1020B00089E0089588E0089580E0089582E0089519
:1020C00081E0089580E00895FC0101900020E9F787
:1020D0003197AF01481B590BBC0181E994E00C9486
:1020E000E30682E992E00C946410CF93DF930E94A0
:1020F000D007EC010E9471108C0F9D1FDF91CF91D2
:1021000008958AE494E00E94751080E008950F938A
:102110001F93CF93DF93EC018B018CEE93E00E9431
:1021200075108BE0F801DE01129601900D928A95F0
:10213000E1F781E08D870E943E10811107C0E881A0
:10214000F9810480F581E02DCE01099581E0DF91D0
:10215000CF911F910F91089583E192E00E94751035
:1021600010923A0410923B0410923C0410923D04E9
:10217000089586309105E9F1A0F48330910599F135
:1021800040F48130910521F1029751F18FE690E002
:1021900021C08430910551F10597C1F78CEC90E096
:1021A00019C08238910559F148F48730910521F121
:1021B0008138910559F789EA90E00CC0843891057F
:1021C00021F100F18F3F910509F787E790E002C008
:1021D00083EF90E00E94D00788E690E00C947510A1
:1021E0008DEE90E0F7CF80EE90E0F4CF87ED90E0B9
:1021F000F1CF8EEB90E0EECF84EB90E0EBCF8DE96A
:1022000090E0E8CF8FE890E0E5CF8FE790E0E2CF75
:102210008F929F92AF92BF920F931F93CF93DF93B2
:10222000CDB7DEB7A1970FB6F894DEBF0FBECDBF16
:1022300019A2423008F44AE08E010F5D1F4F842E30
:10224000912CB12CA12CA50194010E949E30E62F67
:10225000B901CA01EA30F4F4E05DD801EE938D01D2
:10226000232B242B252B79F790E080E0109719F091
:10227000CD010E946410A1960FB6F894DEBF0FBE88
:10228000CDBFDF91CF911F910F91BF90AF909F90E5
:102290008F900895E95CE1CF462F682F70E090E0C1
:1022A00080E00C940811CF93DF936AE070E00E9405
:1022B0004C11EC010E9471108C0F9D1FDF91CF918A
:1022C0000895CF92DF92EF92FF92CF93DF9397FF23
:1022D0001BC06B017C016DE281E994E00E948307E1
:1022E000EC0166277727CB016C197D098E099F09C0
:1022F0004AE00E9408118C0F9D1FDF91CF91FF9043
:10230000EF90DF90CF9008954AE0DF91CF91FF905A
:10231000EF90DF90CF900C940811CF93DF93BC0126
:1023200090E080E04AE00E940811EC010E947110E8
:102330008C0F9D1FDF91CF910895CF92DF92EF9286
:10234000FF9281E092E00E9475108091620490916A
:102350006304A0916404B0916504892B8A2B8B2BB4
:1023600089F10E941E096B017C0120916204309169
:1023700063044091640450916504A0E6BAEE0E94A3
:102380008B30C60ED71EE81EF91EC0923A04D092BA
:102390003B04E0923C04F0923D0489EF91E00E94FE
:1023A000D00760913A0470913B0480913C04909175
:1023B0003D044AE00E940811FF90EF90DF90CF901B
:1023C0000C94711010923A0410923B0410923C0449
:1023D00010923D04E2CFEF92FF920F931F93CF93A1
:1023E000DF93EC018C01060F111D0C171D07A1F0E6
:1023F0007E0188818031C0F088ED92E00E946410F7
:10240000219660E170E0F70180810E944C1188ED17
:1024100092E00E946410E9CFDF91CF911F910F915C
:10242000FF90EF900C94711085E992E0E7CF0F9345
:102430001F93CF93C82F8B0181FF04C087E992E0DF
:102440000E946410C0FF04C08BE992E00E946410F7
:10245000C3FF04C080EA92E00E946410C8010E9499
:102460006410CF911F910F910C9471108F92AF92C5
:10247000BF92CF92DF92EF92FF920F93CF93DF93B1
:10248000CDB7DEB764970FB6F894DEBF0FBECDBFF1
:10249000062FE62EF12CA701BC01CE0101960E9469
:1024A0002F3221E030E02C0F3D1F2E0D3F1D402F1D
:1024B000BE016F5F7F4F8CE895E00E94080B811191
:1024C00023C082E18C8B1B8A0E5F1F92812CCE0170
:1024D00043965C0101966C0143977C019C0140E3AB
:1024E0006CE08CE895E00E94540B0F9081110CC0B9
:1024F0008C898130D1F48B898430B9F481E0998161
:102500009A3009F480E0819564960FB6F894DEBFA6
:102510000FBECDBFDF91CF910F91FF90EF90DF9075
:10252000CF90BF90AF908F90089581E0EDCF0F9343
:102530001F93CF93DF9300D0CDB7DEB78B0190EA26
:1025400099838A8362E0CE0101960E94361281113E
:1025500004C060E1C8010E9436120F900F90DF9115
:10256000CF911F910F910895CF93DF93C82FD62F4E
:102570008BED97E00E94D0076AE070E08D2F0E94FB
:102580004C118BEC97E00E94D0078C2F0E945311C6
:102590008C2F90E023E6D29F800D911D1124DF91B6
:1025A000CF910C9456308F929F92AF92BF92CF9260
:1025B000DF92EF92FF92CF93DF93EC01CF80D12C8B
:1025C0008FEFC81AD80A0D2C000CEE08FF088E8079
:1025D000912CB12CA12C8C149D04AE04BF048CF45E
:1025E000C818D908EA08FB0841F00E94FE2FA7018D
:1025F00096010E946C306B017C018C0C9D1CAE1C02
:10260000BF1C80E492E00E94D007C501B401882776
:1026100099274AE00E9408118CE392E00E9475100D
:102620000E941E0948EE53E0849E9001859E300D65
:10263000949E300D1124620F731F811D911D6A83BA
:102640007B838C839D83DF91CF91FF90EF90DF9010
:10265000CF90BF90AF909F908F900895EF92FF9290
:102660000F931F93CF93DF9388EF90E00E94751034
:102670008091E9039091EA036091E7037091E80388
:10268000FC013196E61BF70BA62F20E0422F50E00D
:102690004E175F0740F44C515D4F3A2F320FEA015D
:1026A00038832F5FF3CF8F5F861BE82FF0E0EC516C
:1026B000FD4F8F3F19F011928F5FFBCFF12C2091CE
:1026C000E9033091EA032F5F3F4F8091E703909138
:1026D000E8038901081B190BCF2DD0E0C017D107E3
:1026E00098F40E94FE2FCC51DD4FE880980150E015
:1026F00040E00E946C30E62FF0E0EC51FD4F80810D
:102700008883E082F394DBCFDF91CF911F910F910B
:10271000FF90EF900895FF920F931F93CF93DF9355
:10272000EC01F62E08811981C8010E945630F81676
:1027300021F06F2DC8010E945E30CE01DF91CF9154
:102740001F910F91FF900895FF920F931F93CF93C6
:10275000DF9300D0CDB7DEB7182FF62E042F8CE014
:1027600098E00E94D0076AE070E0802F0E944C1130
:102770008CEF97E00E94D0076AE070E0812F0E9402
:102780004C118CEE97E00E94D0078F2D0E945311C0
:10279000812F90E023E6F29E800D911D11249A83F3
:1027A0008983602FCE0101960E948B130F900F90AA
:1027B000DF91CF911F910F91FF9008950F931F9379
:1027C000CF938C018091860490918704009781F0CB
:1027D000DC01ED91FC910480F581E02D09958823C1
:1027E00039F08FE694E0CF911F910F910C94751002
:1027F0008091E3039091E4038017910709F4B4C03A
:10280000C0918504CC2309F4AFC01093E403009376
:10281000E303E0913E04F0913F048181853009F4A7
:1028200078C0F8F4823021F1833009F452C081E697
:1028300094E00E9475108AE594E00E94D007E09130
:102840003E04F0913F0481810E9453110E949D112A
:1028500064EF71E080E090E0CF911F910F910C94B4
:10286000EC088930B1F18A3009F453C08830F9F6A8
:102870008091E5039091E6032091E9033091EA030A
:102880008217930709F45AC001969093E603809348
:10289000E503C0E087EA92E00E946410A0913E0444
:1028A000B0913F04CC2309F453C0E091E503F091CB
:1028B000E603ED51FD4F60818C910E942316E0915B
:1028C000E503F091E603ED51FD4F80810E94531125
:1028D000BFCF2091E5033091E6038091E903909109
:1028E000EA0301964091E7035091E803841B950B9E
:1028F0008217930739F02F5F3F4F3093E603209301
:10290000E503C8CF81E090E09093E6038093E50370
:10291000C1CF4091E5035091E6036481808120910D
:10292000E9033091EA034217530759F04F5F5F4FB5
:102930005093E6034093E5030E94A4130E949D1167
:10294000A8CF4091E703CF911F910F910C94A4134E
:102950006091E5038C910E9423168091E50390918C
:10296000E6030E948D1174CFCF911F910F910895AE
:10297000BF92CF92DF92EF92FF920F931F93CF936C
:10298000DF93CDB7DEB72A970FB6F894DEBF0FBE40
:10299000CDBFD82E8AE0B82E8E010F5F1F4FEE24D8
:1029A000E394FF24FA94CC24C394D801EB2D1D9218
:1029B000EA95E9F741E050E0B80180912E05909149
:1029C0002F050E945C09813009F068C089818E372B
:1029D00089F749E050E0BE016E5F7F4F80912E0580
:1029E00090912F050E945C098F5F8A3008F468C0BF
:1029F0008A818F3F09F067C08B81863009F063C000
:102A00008A858F3E09F05FC09C81288539853227F1
:102A1000232732276D81492F50E04A5F5F4F640FB3
:102A2000752F711D4E81640F711D4F81460F572FF9
:102A3000511DB701641B750B2617370709F046C0F7
:102A40002E813F81322723273227DD2009F441C020
:102A5000D91256C0C9012A960FB6F894DEBF0FBE30
:102A6000CDBFDF91CF911F910F91FF90EF90DF903D
:102A7000CF90BF900895C9010E94DE13D11095CF69
:102A80003CC0C092360564EB72E0C9010E94171287
:102A9000F5CFC09236056BEB72E0F7CF81E890E09E
:102AA0000E94B91080912E0590912F05DC01ED91C7
:102AB000FC910084F185E02D0995892BF9F61DC064
:102AC00082E890E0EDCF83E890E0EACF84E890E000
:102AD000E7CF9F3358F49C3370F69A33D1F29B338F
:102AE00061F4C092360561EC72E0CFCF9F3349F2BA
:102AF000903419F4C9010E94B91030E020E0AACF47
:102B00009F3348F49C3308F0B6CF9A3311F29B33CD
:102B100009F04BCFE6CF9F3309F4B3CF903409F0DF
:102B200044CFE8CF80912E0590912F05DC01ED91E7
:102B3000FC910084F185E02D09950A9724F080E04E
:102B40000E94B814EFCF08950F931F93CF93DF9394
:102B5000CDB7DEB72A970FB6F894DEBF0FBECDBF54
:102B600096E0FE013596DF01292F1D922A95E9F79F
:102B70004EE749834FEF4A839B839FEE9A878C836E
:102B8000272F30E07E836F8390E08B5F9E4F4D81D7
:102B9000840F911D280F391F620F732F711D7195BE
:102BA00061957109788769870E941E090091300537
:102BB000109131052091320530913305AB01BC01F4
:102BC000401B510B620B730B8091340590913505BE
:102BD000B0E0A0E0481759076A077B0748F40E9455
:102BE000921561E070E080E090E00E94EC08DCCF9C
:102BF00082E390E0909335058093340580912E0513
:102C000090912F05DC01ED91FC910280F381E02D84
:102C10004AE050E0BE016F5F7F4F09950E941E0998
:102C2000609330057093310580933205909333059E
:102C30002A960FB6F894DEBF0FBECDBFDF91CF91BD
:102C40001F910F910895782F8FE00C94A415CF93C6
:102C50008091860490918704009771F0DC01ED91DA
:102C6000FC910284F385E02D0995882329F082EDFB
:102C700094E0CF910C947510E0913E04F0913F04E4
:102C80008181853009F47AC0B0F48230D9F0833084
:102C900059F180EF94E00E94751089EE94E00E9453
:102CA000D007E0913E04F0913F0481810E945311CE
:102CB0000E949D1117C08930B9F08A3009F45EC0B6
:102CC000883039F78091E5039091E6032091E7037E
:102CD0003091E8032817390728F401979093E60309
:102CE0008093E503C0E00DC08091E5039091E60379
:102CF00082309105B8F101979093E6038093E50344
:102D0000C1E089EC92E00E946410A0913E04B09171
:102D10003F04CC2309F449C0E091E503F091E603B8
:102D2000ED51FD4F60818C910E9423168091E50347
:102D30009091E6030E948D11E091E503F091E60386
:102D4000ED51FD4F80810E94531168EE73E080E0E9
:102D500090E00E94EC086CE271E080E090E0CF919E
:102D60000C94EC088091E9039091EA03019620917C
:102D7000E7033091E803821B930BBECF8091E503FC
:102D80009091E6032091E7033091E8032817390773
:102D900028F401979093E6038093E5034091E503BF
:102DA000648180810E94A4139DCF6091E5038C9182
:102DB0000E9423168091E5039091E6030E948D11F5
:102DC000C4CF8BE094E00E94751062E370E080E075
:102DD00090E00E94EC080E943E10811114C0E09126
:102DE0003E04F0913F0491816091E5037091E60308
:102DF0008081933051F0993041F00E942316109257
:102E0000E4031092E30381E008956D517D4FFB01CF
:102E10006081F3CFBC0183E10C94A41520913904A7
:102E200030915D04822F90E0231708F401960E94F0
:102E30000A1764EF71E080E090E00E94EC088AE3FA
:102E400094E00E94751080E008952091390430913B
:102E50005E04822F90E0321708F401970E940A174F
:102E600064EF71E080E090E00E94EC0887E294E07B
:102E70000E94751080E008950F931F93CF93DF9306
:102E8000FC014281538164817581452B462B472B80
:102E900029F1EC010E941E090A811B812C813D81D0
:102EA0000617170728073907C8F48EE592E00E9435
:102EB00075100E943E10882351F08DE291E00E942F
:102EC0000A1764EF71E080E090E00E94EC08CE0108
:102ED000DF91CF911F910F910C94D312DF91CF917D
:102EE0001F910F91089570E060E08EE00C94A4159E
:102EF000CF93DF93EC0184E593E00E9475100E946C
:102F0000731764E670E080E090E00E94EC086A814C
:102F10008B810E94231681E0DF91CF9108950F935A
:102F20001F93CF93DF93FC014281538164817581AC
:102F3000452B462B472BF9F0EC010E941E090A8114
:102F40001B812C813D81061717072807390798F444
:102F500089E292E00E9475100E9473170E949D11F1
:102F60001092870410928604CE01DF91CF911F91B9
:102F70000F910C949931DF91CF911F910F9108958A
:102F8000BC0182E10C94A415CF93DF93EC018BE09C
:102F9000FB01DE011A9601900D928A95E1F788896E
:102FA0008B30A1F087E893E00E9475100E947317A0
:102FB00064E670E080E090E00E94EC088BE291E033
:102FC0000E94C01781E0DF91CF91089581E793E0DF
:102FD0000E94751088858823B1F38985811109C005
:102FE00099899D839F859E839A899F8391E0998784
:102FF000EACF80E0E8CFCF93DF93EC018BE0FB01D9
:10300000DE011B9601900D928A95E1F789898B303C
:10301000A1F08EEC92E00E9475100E94731764E696
:1030200070E080E090E00E94EC088BE291E00E946A
:10303000C01781E0DF91CF91089586EB92E00E9466
:1030400075108985811109C09A899A8398899B8313
:103050009B899C8391E09987EDCF8A85811109C076
:103060009A899D8398899E839B899F8391E09A8703
:10307000E1CF80E0DFCF80918604909187040097B4
:1030800069F0DC01ED91FC910684F785E02D09954E
:10309000882321F08EE994E00C94751090915E04E1
:1030A00080913904981750F470E060E085E00E9448
:1030B000A4158091390481508093390481EB94E008
:1030C0000E94D007809139040C945311809186049A
:1030D00090918704009769F0DC01ED91FC910484E4
:1030E000F585E02D0995882321F081E894E00C9482
:1030F000751090915D0480913904891750F470E047
:1031000060E084E00E94A415809139048F5F809371
:10311000390482E994E00E94D007809139040C942C
:103120005311CF92DF92EF92FF920E941E096B0122
:103130007C0128EEC20E23E0D21EE11CF11C62E3EA
:1031400070E080E090E00E94EC080E9492150E94DE
:103150003E10811107C00E941E096C157D058E0569
:103160009F0568F36CE271E080E090E00E94EC085B
:1031700062E370E080E090E00E94EC080E9492150B
:103180000E943E108111F4CFFF90EF90DF90CF901E
:1031900008954F925F926F927F928F929F92AF921B
:1031A000BF92CF92DF92EF92FF920F931F93CF9334
:1031B000DF936C01CB015A01D22F009711F00E94CE
:1031C000C01781EF9CE00E94D007B6010D2C000CC7
:1031D000880B990B0E94611188EE9CE00E9475108B
:1031E000FE2CCE2D8824839481E994E00E9441072F
:1031F000181619060CF06AC00E942A09FC0197FDF6
:1032000061C08D32910521F0C0970A9708F052C035
:10321000412C512C3201912CE130F105D9F0ED32E5
:10322000F10509F44CC0CF01C0970A9798F4AAE0C1
:10323000B0E0A30192010E948B302F01FF0F6608BE
:103240007708460E571E681E791E80E3481A5108FB
:103250006108710881E994E00E941F070E942A0911
:10326000FC01C0970A97C0F2E130F105A9F299205C
:1032700041F07094609450944094411C511C611C26
:10328000711CC201892B11F1C414D504FCF0C42DAA
:103290008C2FDF91CF911F910F91FF90EF90DF90D6
:1032A000CF90BF90AF909F908F907F906F905F90E6
:1032B0004F90089581E994E00E941F079DCF9924C3
:1032C0009394C8CF412C512C3201DBCF0E94F10FD7
:1032D0000E9492158AE795E00E94C806882379F03B
:1032E00082E293E00E94C0176CE271E080E090E01F
:1032F0000E94EC0881E080938A04CE2DC9CF8AE732
:1033000095E00E949F0F882371F0CC2361F085EE39
:103310009CE00E94D0078C2F0E9453110E947317CB
:103320000E949118B5CF88E695E00E94C8068823D0
:10333000E1F18C2F90E00A96C816D9060CF4C6016C
:10334000C82F8092890486E595E00E94C8068823EC
:1033500009F441C0CB3008F4CBE0CA508092880415
:10336000CF15E1F08C2F0E945311C5018C0F911DD8
:103370000E94C017DD2389F00E94911861E08C2F14
:103380000115110511F06C2F802F0E9423166CE29D
:1033900071E080E090E00E94EC08FC2E66E970E0AD
:1033A00080E090E00E94EC081FCF88E695E00E9444
:1033B0009F0F882341F280918904811109C08C2FCD
:1033C00090E00196C816D9060CF4C601C82FBBCFF1
:1033D00010928904B8CF86E595E00E949F0F88235C
:1033E00009F4BECF80918804811105C0C23008F471
:1033F000C2E0C150B5CF10928804B2CFEF92FF92D5
:103400000F931F93CF93DF93CDB7DEB7AB970FB674
:10341000F894DEBF0FBECDBFE9A2FAA20BA31CA396
:103420002DA33EA34FA358A769A77AA78BA7FE0198
:103430007B9686E0DF011D928A95E9F783E1898B0F
:1034400087E38A8B83EB8B8B87E48C8B82E08D8B7D
:103450008EA18E8B8FA18F8B88A5888F89A5898F50
:103460008AA58A8F8BA58B8F8DE197E00E947510BE
:10347000E0919905EF7710E0E13420F4F0E0ED5DA4
:10348000FD4F10810DEF010F033048F589EF96E0F5
:103490000E94751087E00E94C80C80934004F09051
:1034A0004004FF2049F18BEC96E00E94D0078F2D5D
:1034B0000E94670A0E94751081E991E00E94C0177E
:1034C0000E949118AB960FB6F894DEBF0FBECDBF29
:1034D000DF91CF911F910F91FF90EF9008951630DB
:1034E000F1F619821A8284EE96E00E947510CE01E0
:1034F00001960E946A0CD1CF8DEB96E00E94D00716
:103500006AE070E084E00E944C1189EB96E00E9432
:10351000751060E1CE0141960E94EB110E9471107E
:10352000BE016F5E7F4F84E0033008F455C0163053
:1035300009F056C08E010B5F1F4F8CE0F82EF8018A
:103540008F2D11928A95E9F784E0FE017196DE01D4
:10355000119601900D928A95E1F7BE016F5F7F4F42
:1035600088E00E949712D801EF2D1D92EA95E9F7A5
:1035700084E0FE017596DE01119601900D928A9508
:10358000E1F7BE016F5F7F4F89E00E949712D8017B
:10359000EF2D1D92EA95E9F784E0FE017996DE01B0
:1035A000119601900D928A95E1F7BE016F5F7F4FF2
:1035B0008AE00E949712D8011D92FA94E9F784E0FC
:1035C000FE017D96DE01119601900D928A95E1F73C
:1035D000BE016F5F7F4F8BE00E9497128093400483
:1035E0001091400480E991E0112359F084EA96E0BB
:1035F0000E94D007812F0E94670A0E94751081E9FE
:1036000091E00E94C0170E9471105ACFCF93DF93B0
:10361000EC0189858823A1F08A85882389F00E949E
:103620003E1081110DC03A812D819C818F81321312
:1036300032C03B812E8132132EC098133BC01A86B4
:1036400088E695E00E94C806882311F186E595E09A
:103650000E94C8068823E1F00E94F10F80916F0557
:103660008111FACF80915D058111F6CF8DE992E04D
:103670000E9475100E94731764E670E080E090E08D
:103680000E94EC088AE291E00E94C01719861A860F
:10369000DF91CF91089598130DC019861A8683E79C
:1036A00092E00E94751089E291E00E94C0170E948A
:1036B0009118C6CF8885813009F419861A8688E862
:1036C00092E00E94751088E291E0EFCFCF93DF93F4
:1036D000EC0180912E0590912F05DC01ED91FC917C
:1036E0000084F185E02D09951816190624F480E070
:1036F0000E94B814EECFBE018EE40E94A4158EE4A1
:10370000DF91CF910C94B814EF92FF920F931F9317
:10371000CF93DF93EC01F12CE12C10E000E021E0ED
:1037200050E040E06DE271E083E690E00E94C9184D
:103730008883811108C080E0DF91CF911F910F91A4
:10374000FF90EF900895F12CE12C10E000E020E0D4
:1037500041E351E061E371E08BE090E00E94C91821
:103760008983882341F38DE896E00E94751084E8F0
:1037700096E00E94D00788810E9453118DE796E061
:103780000E94D00789810E9453118981863009F4F3
:1037900079C058F4843069F1853009F47BC08FE337
:1037A00096E00E94751081E0C7CF8B30B0F18B306E
:1037B000B1F78FE496E00E947510088110E0C8010F
:1037C0000E94661BF12CE12C21E050E040E063E414
:1037D00071E00E94C9188A83088110E020E050E05F
:1037E00040E064E471E08FEF90E00E94C9188B83A1
:1037F000D6CF86E796E00E947510088110E0C801D8
:103800000E94661BF12CE12C21E050E040E060E4D6
:1038100071E00E94C9188A83C2CF8EE696E00E94AA
:103820007510088110E0C8010E94661BF12CE12C84
:1038300021E050E040E061E471E00E94C918E82E08
:103840008A83088110E0C8010E94661BF12C21E0E8
:1038500050E040E062E471E00E94C9188B838981E6
:103860008A3009F09CCFF12CE12C10E000E020E040
:1038700050E040E065E471E08AE090E00E94C91801
:103880008C838DCF84E696E00E94751018828FEFAE
:10389000898385CF8AE596E00E947510E4CFEF9288
:1038A000FF920F931F93CF93DF93CDB7DEB72B9784
:1038B0000FB6F894DEBF0FBECDBF0E9473178AE922
:1038C00096E00E947510CE0106960E94841B882304
:1038D000B1F00E9473170E943E108111FCCF81E06D
:1038E00080935304E980FA800B811C812D813E81F5
:1038F0004F81588569857A858B850E94FE1968EE0F
:1039000073E080E090E00E94EC082B960FB6F894EC
:10391000DEBF0FBECDBFDF91CF911F910F91FF9002
:10392000EF9008958F929F92AF92BF92CF92DF92C5
:10393000EF92FF92CF938DEC95E00E9475100E945C
:1039400092150E94AC1081E0809385041092E403EC
:103950001092E303E0913E04F0913F04808190E0F7
:103960000E94661B9093EA038093E90321E030E014
:103970003093E8032093E703BC0190E080E04AE045
:103980000E9408118AEB95E00E94D007E0913E0466
:10399000F0913F0480810E945311A0913E04B091A8
:1039A0003F041196EC911197E150EB3008F083C081
:1039B000F0E0E352F34E0C94E330E81C5D1D8D1DE6
:1039C000391EE51D5B1D101D641DCF1D021E441E0A
:1039D0008EEA95E00E947510E090E903F090EA030A
:1039E0008FEFE81AF80A81E090E0A0E0B0E0A2E0F2
:1039F000EA16F10480F00E94FE2F970150E040E0AB
:103A000021503109410951090E946C30DC01CB0180
:103A10000196A11DB11D9093E6038093E5034BC071
:103A20008AE995E00E947510E0913E04F0913F0410
:103A30006AE070E082810E944C1185E995E00E9465
:103A4000D007E0913E04F0913F0483810E9453111E
:103A5000E0913E04F0913F04C380D12CD092EA0360
:103A6000C092E9038280882D90E09093E8038093D0
:103A7000E703BFEFCB1ADB0AF12CE12C912CB12C20
:103A8000A12C8C149D04AE04BF048CF4C818D90872
:103A9000EA08FB0841F00E94FE2FA70196010E9450
:103AA0006C306B017C018C0C9D1CAE1CBF1C909279
:103AB000E6038092E503C0E03DC08FE895E00E94F8
:103AC000751081E090E0A7CF81E895E00E94751025
:103AD000E0913E04F0913F046AE070E082810E9430
:103AE0004C118CE795E00E94D007E0913E04F091E4
:103AF0003F0483810E945311E0913E04F0913F0402
:103B0000838190E09093EA038093E903828190E0BF
:103B10009093E8038093E7037ECF86E795E00E94C9
:103B2000751081E090E09093E6038093E5030E9496
:103B30002E13C1E085E195E00E94D0076091E50376
:103B40007091E603E0913E04F0913F04CC2309F428
:103B50009EC06D517D4FDB016C9180810E942316C8
:103B6000E091E503F091E603ED51FD4F80810E9465
:103B70005311C0E00E943E10811193C0C53609F474
:103B800090C062E370E080E090E00E94EC08CF5FBC
:103B9000C43680F382E095E00E947510EBCF81E09F
:103BA00090E09093E6038093E50312968C91129730
:103BB00090E09093E8038093E70313968C9190E054
:103BC0009093EA038093E903B2CF8BE695E00E94DD
:103BD0007510E0913E04F0913F04648180810E9461
:103BE000B41290E09093E6038093E503009709F404
:103BF00068CF2091E9033091EA032817390708F4C8
:103C000060CF59CF88E595E00E947510E0913E04A1
:103C1000F0913F04828190E09093E8038093E70362
:103C2000838190E09093EA038093E903648180812B
:103C30000E94B41290E09093E6038093E5032091F4
:103C4000E7033091E8038217930750F04091E903AE
:103C50005091EA03420F531F8417950708F42BCFA6
:103C60003093E6032093E50385E395E00E94751009
:103C700022CF8EE295E00E947510E0913E04F09113
:103C80003F04828190E0C7CE82E295E0F4CF80814C
:103C90000E9423168091E5039091E6030E948D1106
:103CA00068CFCF91FF90EF90DF90CF90BF90AF9013
:103CB0009F908F90089510925304809145049091A5
:103CC0004604A0914704B09148048734934BA7431E
:103CD000B34151F480914A04882371F080914B04E0
:103CE000882351F00C94921C8CE291E00E94C01742
:103CF0000E9491180C944F1C0895CF93C82F87EE03
:103D000095E00E94D0078C2F0E94531186E08C9F73
:103D1000F0011124E85AFB4F9785992371F0C89F51
:103D2000C001112489599B4F90933F0480933E0416
:103D30000E94921CCF910C94AC1088ED95E0CF912D
:103D40000C9475101F93CF93DF93EC0184ED93E0F7
:103D50000E9475101D851123E9F01D868BE0FE0180
:103D60003296A5E4B4E001900D928A95E1F78AE4D9
:103D700094E090933F0480933E0480914A040E9413
:103D80005311E0913E04F0913F0481810E94531150
:103D90000E94921C812FDF91CF911F9108950F9364
:103DA0001F93CF93DF938C010E94731764E670E03A
:103DB00080E090E00E94EC08F801828190E00E948F
:103DC000661B9093EA038093E903C1E0D0E0209161
:103DD000E7033091E803AE01421B530B840F951F9C
:103DE0002091E5033091E60382179307F1F08BEB06
:103DF00093E00E9475108091E5039091E60301968F
:103E00009093E6038093E503E091E503F091E603E8
:103E1000ED51FD4F6081F80182810E942316DF91F0
:103E2000CF911F910F910C94911880EA93E00E941A
:103E30007510D093E803C093E7030E942E13D0932C
:103E4000E603C093E503E0CF0E94CF1E81E0089512
:103E50000E94CF1E81E008950F931F93CF93DF93AD
:103E6000EC018B8190E00E94661B9093EA038093A3
:103E7000E90301E010E02091E7033091E803A80195
:103E8000421B530B840F951F2091E5033091E603ED
:103E90008217930731F18EE393E00E9475108091B1
:103EA000E5039091E60301969093E6038093E50382
:103EB00081E088878091E5039091E603FC01ED5154
:103EC000FD4F20812A832C830E948D118A810E94BC
:103ED00053116A818B81DF91CF911F910F910C94C7
:103EE000231686E293E00E9475101093E603009378
:103EF000E503DECFCF93DF93EC0188858823A1F023
:103F00008985882389F00E943E1081110DC03A8175
:103F10002D819C818F81321338C03B812E813213D9
:103F200034C0981344C0198688E695E00E94C806FC
:103F3000882309F448C086E595E00E94C8068823D6
:103F400009F441C00E94F10F80916F058111FACFF1
:103F500080915D058111F6CF8FE093E00E9475108E
:103F60000E94731764E670E080E090E00E94EC0825
:103F70008AE291E00E94C0170E9491181886198663
:103F8000CE01DF91CF910C942C1F981310C018868E
:103F9000198689EE92E00E94751089E291E00E94F4
:103FA000C0170E949118CE010E942C1FBDCF198608
:103FB0008CEF92E00E94751088E291E00E94C01799
:103FC0000E949118B1CFDF91CF910895809186041E
:103FD00090918704009769F0DC01ED91FC910084D9
:103FE000F185E02D0995882321F08FEB94E00C9466
:103FF00075100E94FE2F20E030E041E050E00E946A
:104000006C30CB010E94DE136CE271E080E090E046
:104010000C94EC08FF920F931F93CF93DF9386E0ED
:1040200091E00E94751008E514E0C4E6D0E0F801C4
:10403000F1908F01CE010E945630F81621F06F2DBD
:10404000CE010E945E302196C139D10581F7DF9102
:10405000CF911F910F91FF9008958EE191E00E9402
:104060007510E8E5F4E087E493EBA7E3B3E1808320
:104070009183A283B38382E0848389E1858381E095
:104080008683878380871186128613861486158619
:1040900086871786158A138E11A282A383A384A311
:1040A00085A316A217A214A60C940A204F925F9221
:1040B0006F927F928F929F92AF92BF92CF92DF9238
:1040C000EF92FF920F931F93CF93DF93CDB7DEB79D
:1040D0002B970FB6F894DEBF0FBECDBF182F81E02F
:1040E000809353040E94AC100E94731785E396E0FE
:1040F0000E94751010928504111199C08091790465
:10410000813009F18230B1F58FED93E00E94C01744
:10411000CE0101960E94FD0F8823A9F090917A04A8
:104120008981981310C090917B048A8198130BC0E9
:1041300090917C048B81981306C09C8180917D04B2
:10414000981709F474C02B960FB6F894DEBF0FBE13
:10415000CDBFDF91CF911F910F91FF90EF90DF9036
:10416000CF90BF90AF909F908F907F906F905F9017
:104170004F900895833009F05AC00E94FE2F2AE024
:1041800030E040E050E00E946C304B015C017C016B
:104190006B012AE0C20ED11CE11CF11C1C2D0E94F7
:1041A000FE2F2B013C0180EE93E00E94C0170E947D
:1041B0009118C6010E94C0170E94FE2F22E030E035
:1041C00040E050E00E946C3061307105810591053E
:1041D00009F067C0C301B20129E030E040E050E0DF
:1041E0000E946C30DC01CB010196A11DB11DB82EDF
:1041F000C80E0E94911881EE93E00E94C0170E94A1
:1042000091188B2D90E00E94C0178C2D0E945311A5
:10421000F12CE12C10E000E020E050E040E070E004
:1042200060E08FEF90E00E94C9188C118CCFF12CC8
:10423000E12C10E000E020E044E853E064E873E0A3
:104240008EE090E00E94C91890E0009709F47BCFBF
:104250008130910509F058C080E293E00E94C017B8
:104260000E94F10F88E695E00E949F0F811106C021
:1042700086E595E00E949F0F882391F18CEF95E0F1
:104280000E94D00782E293E00E94C0178CE895E07C
:104290000E941A0D0E94B40D0E940A200E949D11D6
:1042A00052CF31E0C316D104E104F10489F00E9439
:1042B000FE2FA5019401275F3F4F4F4F5F4F0E9494
:1042C0006C306B017C014FEFC41AD40AE40AF40A83
:1042D000BC2C1C19C12E0E94911882EE93E08DCF48
:1042E0008CE895E00E94BA0D882309F4B9CF8CE8D8
:1042F00095E00E94570A882349F282EF95E00E94D8
:10430000D0070E944F1CC2CF82309105D1F4E091BA
:104310005E04F0E0E0905D04F12CEE1AFF0A10E07C
:1043200000E020E0AF0162EA73E08EE190E08E1BD6
:104330009F0B0E94C91890915E04890F80935D04C1
:10434000ABCF8330910599F4E0905E04F12C80911D
:104350005D0410E000E020E050E040E063EA73E03C
:104360008150990B0E94C91880935E0495CF8430C8
:10437000910511F520915E0430E0E0905F04F12C8E
:10438000E21AF30A5FEFE51AF50AA9014150510953
:1043900080915D0490E0821B930B10E000E020E030
:1043A00064EA73E001960E94C91890915E049150EE
:1043B000890F80935F0470CF85309105C1F4E09040
:1043C0006004F12C10E000E020E048E953E068E9E7
:1043D00073E086E090E00E94C91880936004282F63
:1043E0002150330BB90187E00E94A41555CF8630C8
:1043F000910509F0D1C087E493EBA7E3B3E189838A
:104400009A83AB83BC8382E08D831E82F12CE12CE6
:1044100010E000E020E046EC53E066EC73E08AE058
:1044200090E00E94C9188F83882309F435CF81302A
:1044300009F047C020E040EC53E060EC73E084E01A
:1044400090E00E94C9188230C1F170F5813091F17D
:10445000EE24E394F12C10E000E020E045EA53E084
:1044600062ED73E082E090E00E94C91881508A8773
:1044700080E293E00E94C0170E94F10F88E695E069
:104480000E949F0F811107C086E595E00E949F0F53
:10449000882309F453C08FE296E00E94751082E2EF
:1044A00093E00E94C0174FCE833049F0843081F6EC
:1044B0008CE301C085E08887CBCF8FE0FCCF8EE115
:1044C000FACF883079F4F12CE12C10E000E020E004
:1044D00045EA53E061ED73E082E090E00E94C91884
:1044E0008150E9CF893071F4F12CE12C10E000E02B
:1044F00021E050E040E06DE271E083E690E00E9450
:10450000C918D9CF8A3009F0A3CFF12CE12C10E0E3
:1045100000E021E050E040E06DE271E083E690E0F1
:104520000E94C918888721E050E040E068E873E005
:104530008EE190E00E94C91889878ACF8CE895E0C7
:104540000E94BA0D882309F497CF8CE895E00E9469
:10455000570A882309F4A0CE85E296E00E947510E0
:10456000E980FA800B811C812D813E814F81588525
:1045700069857A858B850E94FE1964E670E080E08B
:1045800090E00E94EC088CE895E00E941A0D0E94D1
:10459000B40D0E94911880CE8730910501F5F12C61
:1045A000E12C10E000E020E04CEA53E06CEA73E01C
:1045B00083E090E00E94C918482F4150550B9A01A2
:1045C00046E0429FC001439F900D112489599B4FA3
:1045D0000E94841B80E991E00E94C0175DCE883064
:1045E000910509F03FC0F12CE12C10E000E020E043
:1045F00040EC53E060EC73E085E090E00E94C91865
:10460000833031F150F48130B1F0823009F044CE82
:104610008FE090E0A0E0B0E012C08430F1F085308F
:1046200009F03ACE1092620410926304109264046E
:104630001092650431CE85E090E0A0E0B0E0809378
:10464000620490936304A0936404B093650424CE41
:104650008EE190E0A0E0B0E0F2CF8CE390E0A0E04B
:10466000B0E0EDCF8930910509F08BC087E493EB82
:10467000A7E3B3E189839A83AB83BC8381E08D8315
:1046800084E08F83F12CE12C10E000E021E050E089
:1046900040E06DE271E083E690E00E94C918C82E08
:1046A000A82EB12CC5010E94661B850121E050E0B7
:1046B00040E061E471E00E94C918D82EC5010E9453
:1046C000661BED2CF12C21E050E040E062E471E04B
:1046D0000E94C918B82E88EA93E00E94C0170E9471
:1046E0009118BD1408F4D8CD8D2D90E00E94C0170C
:1046F000D8866AE070E08D2D0E944C118AE196E028
:104700000E9475100E94F10F88E695E00E949F0FAD
:10471000811134C086E595E00E949F0F81112EC063
:104720008CE895E00E94BA0D882361F38CE895E04F
:104730000E94570A882301F189E096E00E947510D3
:10474000CE82E980FA800B811C812D813C2D4F8126
:10475000588569857A858B850E94FE1964E670E02C
:1047600080E090E00E94EC088CE895E00E941A0D31
:104770000E94B40D0E949118D394B3CF83E196E0C8
:104780008CCE8A309105C9F4F12CE12C10E000E0C8
:1047900020E045EA53E065EA73E082E090E00E94A1
:1047A000C918813039F0823009F076CD81E08093EC
:1047B000660472CD109266046FCD8B309105C9F4FA
:1047C000F12CE12C10E000E020E045EA53E069EA3A
:1047D00073E082E090E00E94C918813039F08230A5
:1047E00009F05ACD81E08093840456CD1092840460
:1047F00053CD8C30910519F483EB93E0EDCE8D30E1
:104800009105A9F4F12CE12CFA82E98260E0CE0155
:1048100001960E948B135FEFE51AF50AE11484E01C
:10482000F80691F70E942D2087EE93E0D5CE0E97E3
:1048300009F032CDF12CE12C10E000E020E044ED55
:1048400053E064ED73E084E090E00E94C918823088
:1048500071F030F4813009F01FCD109279041CCD35
:10486000833049F0843009F017CD83E001C081E046
:104870008093790411CD8FED93E00E94C017CE0193
:1048800001960E94FD0F882309F406CD89819A8143
:10489000AB81BC8180937A0490937B04A0937C04C9
:1048A000B0937D0482E0E4CF8F929F92AF92BF924B
:1048B000EF92FF920F931F93CF93DF9300D000D01E
:1048C00000D0CDB7DEB74983152F5A83F62E6B8300
:1048D0007C838D839E8380918604909187040097CA
:1048E00009F440C0DC01ED91FC910688F789E02DC8
:1048F0000995811337C01092870410928604109294
:104900007E0410927F040E940A2088E297E00E94B1
:1049100075100E943E108823B1F085E091E00E945E
:104920000A1780E026960FB6F894DEBF0FBECDBF03
:10493000DF91CF911F910F91FF90EF90BF90AF90BB
:104940009F908F9008950E94731764EF71E080E04C
:1049500090E00E94EC0885E091E00E94C0170E9460
:104960009118DFCF8CEB97E00E94D007812F0E9437
:1049700053118FEF810F8E3F40F40E943E10882329
:1049800041F184E091E00E940A1760ED77E080E059
:1049900090E00E94EC08153009F4C5C0A0F5123073
:1049A00009F483C0E8F4112309F448C0113009F474
:1049B0004FC08D81813009F0B4CF86E0FE01319681
:1049C000AEE7B4E001900D928A95E1F70E940A20CB
:1049D000A8CF84E091E00E94C0170E949118D5CF23
:1049E000133009F491C0143021F782E090E00E9466
:1049F000FD302BE032E0FC0131832083909387046B
:104A000080938604D6CF183009F4AAC078F4163003
:104A100009F499C0173069F682E090E00E94FD30F9
:104A20002FEE31E0DC012D933C93E8CF1A3009F4EE
:104A3000EFC008F4B4C01F3F09F0BBCF8CE895E08D
:104A40000E941A0D0E94B40D81E00E945620B1CF41
:104A500086E090E00E94FD308C018FE091E0F8014B
:104A600091838083128213821482158289E397E0F6
:104A70000E94D0078F2D0E9453110E941E094B01E6
:104A80005C012F2D30E0A0E6BAEE0E94C030860E09
:104A9000971EA81EB91EF80182829382A482B58255
:104AA000109387040093860484CF88E090E00E94EE
:104AB000FD308C018BE291E0D8018D939C93F8013D
:104AC000128213821482158285E086838EE18783A9
:104AD0008EE497E00E9475100E943E10882381F0BA
:104AE00068EE73E080E090E00E94EC088CE291E0D8
:104AF0000E940A1764EF71E080E090E00E94EC08E9
:104B0000C8010E94D312CCCF82E090E00E94FD3019
:104B10008C0187E491E0D8018D939C938AE597E01E
:104B20000E947510BDCF8EE090E00E94FD308C0198
:104B300083E691E0D80111969C938E931D961C926A
:104B400089E697E0EDCF82E090E00E94FD308C0195
:104B50008FE791E0F801918380838AE797E0E0CFC7
:104B600086E190E00E94FD308C018BE991E0F80134
:104B70009183808312821382148215821682178297
:104B80001086118612860E9492150E94731787E87C
:104B900097E00E947510D8011896FC9281CF85E1AC
:104BA00090E00E94FD308C0187EB91E0F801918349
:104BB00080831282138214821582168217821086D5
:104BC00011860E94921587EA97E00E9475100E9454
:104BD0007317D8011396FC928F2D90E00E94661BEC
:104BE0009093EA038093E90381E090E09093E803D7
:104BF0008093E7030E942E131092E6031092E503C0
:104C000082E997E00E947510C8010E942C1F48CFCE
:104C10008EE090E00E94FD308C01EC8083ED91E00D
:104C2000F801918380830E94921580EB97E00E94A7
:104C300075100E94731768EC70E080E090E00E94AD
:104C4000EC086E2D70E086E00E94A41568EC70E020
:104C500080E090E00E94EC08D8011296FC928F2D23
:104C600090E00E94661B9093EA038093E90381E041
:104C700090E09093E8038093E7030E942E13109234
:104C8000E6031092E5030CCF0F931F93CF93DF93AE
:104C900080EE91E00E94751008E514E0C4E6D0E0D3
:104CA000CE010E945630F80181938F012196C139BF
:104CB000D105B1F78091580490915904A0915A04FC
:104CC000B0915B048734934BA743B34111F00E942A
:104CD0002D20C0915C04C13099F487E391E00E94DB
:104CE000751082E080935C0410927904C0937A047A
:104CF000C0937B04C0937C04C0937D040E940A206F
:104D000086ED91E00E94D00780915C040E945311CF
:104D10008CEC91E00E94D00780915D040E945311B9
:104D200081EC91E00E94D00780915E040E945311B3
:104D300086EB91E00E94D00780915F040E9453119E
:104D400081EB91E00E94D007809160040E94531192
:104D500088EA91E00E94D0076091610470E090E0E1
:104D600080E00E9461110E9471108AE991E00E9426
:104D7000D007609162047091630480916404909103
:104D800065040E9461110E94711083E891E00E9405
:104D9000D0076091660470E090E080E00E946111AD
:104DA0000E9471108FE691E00E94D00780917904F3
:104DB0000E9453118EE591E00E94D0076AE070E0F6
:104DC00080917A040E944C116AE070E080917B042B
:104DD0000E944C116AE070E080917C040E944C11AA
:104DE00080917D040E94531188E491E00E94D007D5
:104DF00080917F04DF91CF911F910F910C945311FB
:104E00001F920F920FB60F9211242F933F934F933F
:104E10005F936F937F938F939F93AF93BF93EF9322
:104E2000FF9381E994E00E946107FF91EF91BF91A8
:104E3000AF919F918F917F916F915F914F913F9132
:104E40002F910F900FBE0F901F9018951F920F92E9
:104E50000FB60F9211242F938F939F93EF93FF938D
:104E6000E091A104F091A2048081E091A704F09167
:104E7000A80482FD1BC090818091AA048F5F8F736C
:104E80002091AB04821741F0E091AA04F0E0EF56C4
:104E9000FB4F958F8093AA04FF91EF919F918F9183
:104EA0002F910F900FBE0F901F9018958081F4CF17
:104EB0001F920F920FB60F9211242F933F938F934F
:104EC0009F93AF93BF9380912C0490912D04A09158
:104ED0002E04B0912F0430912B0423E0230F2D37A3
:104EE00058F50196A11DB11D20932B0480932C042D
:104EF00090932D04A0932E04B0932F04809130043E
:104F000090913104A0913204B09133040196A11D17
:104F1000B11D8093300490933104A0933204B09378
:104F20003304BF91AF919F918F913F912F910F903B
:104F30000FBE0F901F90189526E8230F0296A11D13
:104F4000B11DD2CF1F920F920FB60F9211242F9343
:104F50003F934F935F936F937F938F939F93AF9301
:104F6000BF93EF93FF93E0913604F09137043097AD
:104F700049F0A685B7858585968D91FF14C09C91D3
:104F80008923A1F4FF91EF91BF91AF919F918F91F0
:104F90007F916F915F914F913F912F910F900FBE35
:104FA0000F901F9018959C91892361F7A389B4896C
:104FB0009C918589809589238C938689978901970F
:104FC000F1F7608D718DA685B785558538E020E0B5
:104FD000CB010197F1F7822F90E095958795282FC7
:104FE0004C91452309F02068315091F7868D81FD61
:104FF00020958091350490E001968F739927309128
:105000003404381799F0A0913504B0E0A551BC4F95
:105010002C9380933504828D938D0197F1F7A389AA
:10502000B4898C919589892B8C93ACCF868D8160C6
:10503000868FF1CF0F931F931092940410929304D4
:1050400008EE13E020E030E00093950410939604FE
:10505000209397043093980488E692E0909392040A
:105060008093910485EC90E090939E0480939D043E
:1050700084EC90E09093A00480939F0480EC90E0F7
:105080009093A2048093A10481EC90E09093A404F7
:105090008093A30482EC90E09093A6048093A504EF
:1050A00086EC90E09093A8048093A7041092AA0441
:1050B0001092AB041092AC041092AD048CE892E014
:1050C00090938D0580938C058AE080939A0589E002
:1050D00080939B058EE080937A0589E190E0A0E0C3
:1050E000B0E080937B0590937C05A0937D05B09301
:1050F0007E0561E060937F05609380054FE04093FB
:1051000068058093690590936A05A0936B05B09339
:105110006C0560936D0560936E0540E14093560504
:105120008093570590935805A0935905B0935A055D
:1051300060935B0560935C0510923A051092390507
:1051400000933B0510933C0520933D0530933E05AD
:105150008AE792E0909338058093370510924E05C8
:1051600010924D051092500510924F051092520565
:1051700010925105109254051092530580915505D7
:105180008E7F8D7F8093550586958170682783E09B
:105190000E945D0861E083E00E948B08E7E2FDE089
:1051A000E491E0934705E3E1FDE0E491F0E0EE0FE8
:1051B000FF1FEA5FF24F8591949190934905809388
:1051C000480560E082E00E948B088091550581FDD2
:1051D00004C061E082E00E945D0882E080934305A4
:1051E000E6E2FDE0E491E0934405E2E1FDE0E491D4
:1051F000F0E0EE0FFF1FE450F34F859194919093F0
:1052000046058093450587E395E090932F058093AD
:105210002E0582E390E0909335058093340510923B
:1052200036051F910F910895CF93DF93CDB7DEB769
:10523000A6970FB6F894DEBF0FBECDBF789484B5A5
:10524000826084BD84B5816084BD85B5826085BD82
:1052500085B5816085BD80916E00816080936E0010
:105260001092810080918100826080938100809102
:1052700081008160809381008091800081608093B3
:1052800080008091B10084608093B1008091B00073
:1052900081608093B00080917A00846080937A006E
:1052A00080917A00826080937A0080917A00816098
:1052B00080937A0080917A00806880937A001092BF
:1052C000C100E091A104F091A20482E08083E0910A
:1052D0009D04F0919E041082E0919F04F091A0043F
:1052E00080E180831092A904E091A504F091A604C6
:1052F00086E08083E091A304F091A4048081806122
:105300008083E091A304F091A4048081886080836D
:10531000E091A304F091A404808180688083E091EF
:10532000A304F091A40480818F7D80838BE59AE0B3
:105330000E94751086E29AE00E94751081EF99E054
:105340000E9475108CED99E00E94751081E08093A9
:10535000000160E084E00E948B08E0912E05F0914E
:105360002F05138E128E118E108E178A168A8DE9D4
:1053700091E0958F848F8485863108F03DC02DEBB8
:1053800030E0378B268B2BE931E0318F208F2CE2F8
:1053900031E0338F228F90916800883008F49BC1F0
:1053A00021E08E3008F420E081E001C0880F2A95CA
:1053B000EAF7892B8093680094852DE630E09830D9
:1053C00050F02BE630E09E3030F02CE630E09631A5
:1053D00010F030E020E0348B238B292F30E0983020
:1053E00008F07BC181E001C0880F9A95EAF7858BB0
:1053F000848D958D0197F1F7828D938D892B41F1E5
:105400004091360450913704E417F50709F141152E
:10541000510569F0DA0153962D913C91D9019C9187
:10542000DA0155968C9180958923D9018C93868DCC
:105430008E7F868F1092350410923404F0933704D7
:10544000E0933604A389B4898C919589892B8C9338
:10545000E0912E05F0912F0580E197E2A0E0B0E009
:1054600084839583A683B7830E941E0960933005C9
:1054700070933105809332059093330560ED77E0AA
:1054800080E090E00E94EC080E94921520E080915C
:105490000001B0E48B9FC0011124876080937C00E1
:1054A00080917A00806480937A0080917A0086FDF2
:1054B000FCCF8091780090917900082F017010E066
:1054C0004801110FAA08BB08322F3F7104C0880C95
:1054D000991CAA1CBB1C3A95D2F7C501B4016C25D6
:1054E0007D258E259F252F5F203809F003C18C1460
:1054F0009D04AE04BF0411F00E944D300E9444266A
:1055000050917F04552361F040917E0460918004A6
:105510007091810480918204909183040E945424AC
:105520000E949D1160915F046093390470E086E0F1
:105530000E94A415609160046150770B87E00E947F
:10554000A4151FB7F89480913804811127C0EAE1AF
:10555000FDE08491EEE2FDE09491E82FF0E0EE0FA3
:10556000FF1FE85DF64FA591B491EC91E92321F47A
:1055700061E08AE00E945D0861E08AE00E948B0899
:105580008CB580618CBD8CB580648CBD61E08DE094
:105590000E948B0861E08BE00E948B0880913804A8
:1055A0008F5F809338041FBF61E080919A050E944D
:1055B0008B0861E080919A050E945D0880919B05AF
:1055C0008F3F09F49AC060E00E948B0880919B0590
:1055D0000E943408892B09F090C061E080919B05FE
:1055E0000E948B0860E080919B050E945D0883E02B
:1055F00090E00197F1F761E080919B050E945D08C2
:1056000062E370E080E090E00E94EC0840E064E239
:105610008CE895E00E94EB0A40E066E28CE895E0B9
:105620000E94EB0A46E268E48CE895E00E94EB0AEF
:1056300040E864E58CE895E00E94EB0A49EA66E5FB
:105640008CE895E00E94EB0A43E068E58CE895E081
:105650000E94EB0A48EE6AE58CE895E00E94EB0AAE
:1056600040E46AE28CE895E00E94EB0A4DE362E2D6
:105670008CE895E00E94EB0A68E28CE895E00E94D5
:10568000CD0A982F9370933039F0482F436068E229
:105690008CE895E00E94EB0A6EE68CE895E00E94AB
:1056A000CD0A182F89EB99E00E94D00760E170E0E5
:1056B000812F0E944C1186EA99E01039E9F1A0F59A
:1056C00082E899E01231C1F18EEA99E01838A1F12F
:1056D00085E799E031C084E06CCE9E3040F42850DC
:1056E000310981E001C0880F2A95EAF780CE2E505B
:1056F0003109F7CF6B017C01CACE4FE062E08CE844
:1057000095E00E94EB0A13E062E370E080E090E035
:105710000E94EC0862E08CE895E00E94CD0A84FFCC
:1057200075CF115089F772CF8EE999E0113921F0C8
:1057300086E999E0123961F60E94751011501E3FFA
:1057400020F082E399E00E9475108FEF80938B0424
:1057500080938C0480938D0480938E0480938F04B7
:105760008093900462E08EE00E948B0862E08FE0FC
:105770000E948B0862E080E10E948B0861E087E074
:105780000E948B0860E087E00E945D088EE00E9426
:105790003408892BF1F48FE00E943408892BC9F476
:1057A00080E10E9434088C01892B99F48EEC99E0F9
:1057B0000E9475101A83098360E0CE0101960E9451
:1057C0008B130F5F1F4F011534E0130799F70E94E9
:1057D0004426FAE4EF2EF4E0FF2E80903A049090F5
:1057E0003B04A0903C04B0903D0481149104A104BA
:1057F000B10409F444C00E941E0986169706A80643
:10580000B90608F03CC080E89AE00E94751043E0B9
:1058100068E28CE895E00E94A00D62E08CE895E0DB
:105820000E94CD0A482F406162E08CE895E00E941A
:10583000EB0A70E060E08AE00E94A41583B7817FE4
:10584000846083BFF89483B7816083BF889583B7F2
:105850008E7F83BF8091860490918704009709F41E
:1058600060C0DC01ED91FC910088F189E02D099583
:10587000882309F456C08FE69AE00E9475100E94B2
:1058800092150E94F10F80918604909187040097F1
:1058900039F0DC01ED91FC910190F081E02D09954A
:1058A0008AE795E00E94C80681110DC088E695E060
:1058B0000E94C806811107C086E595E00E94C806CF
:1058C000882309F441C0809181058823E9F1809102
:1058D0006F058823C9F180915D058823A9F10E9495
:1058E00073170E94F10F809181058111FACF809189
:1058F0006F058111F6CF80915D058111F2CF0E9475
:10590000F10F80E00E94562080E090E0892B09F49E
:1059100064CF0E944D07882309F45BCF0E940000EA
:1059200058CF8AED92E00E9464100E9471100E948C
:10593000731764EF71E080E090E00E94EC0861E092
:1059400087E00E945D089BCF8AE795E00E949F0F49
:1059500081118EC088E695E00E94C806882309F46C
:10596000BDC00E943E10882309F4B4C08091660433
:105970008111ADC00E94661881E08093890486E59C
:1059800095E00E94C806882309F4C6C00E943E1014
:10599000882309F4BDC0809166048111B6C00E94BD
:1059A0003B1881E0809388040E941E0900915404F2
:1059B0001091550420915604309157045B016C01FD
:1059C000A01AB10AC20AD30A96018501053611054B
:1059D0002105310508F498CF609354047093550461
:1059E000809356049093570480915204811154C2BD
:1059F0008CE895E00E94BA0D882309F485CF8CE8E5
:105A000095E00E94570A882309F47ECF83EA9CE040
:105A10000E9475108AE89CE00E94751060918E05C6
:105A20008FE895E00E94EB118FE79CE00E94D00781
:105A3000E0919905EF77E13408F0CCC0F0E0ED5D3E
:105A4000FD4F10818BE09BE0153009F485C008F014
:105A5000AAC088E39BE0123009F47EC008F073C04E
:105A600080E69BE0113009F477C08FE89AE074C0BB
:105A70008091860490918704009771F0DC01ED918C
:105A8000FC910280F381E02D0995882329F088EDAF
:105A90009CE00E94751038CF80918A04811108C063
:105AA0000E943E10882339F00E9473170E949D11B6
:105AB00010928A044FCF809185048823C9F370E047
:105AC00060E08DE00E94A4150E94AC10F1CF0E940E
:105AD000E61F52CF81E00E947D1E4ECF88E695E002
